:0400000007EF00F016
:0A0008007D8204ED08F087EF0BF095
:1010000000256900257500000600F2A80AEF08F027
:101010000CEF08F015EF08F0F2A211EF08F013EF53
:1010200008F015EF08F0C2EC0CF0F0A61AEF08F08B
:101030001CEF08F025EF08F0F0A021EF08F023EFF7
:1010400008F025EF08F0C0EC0CF0F0A82AEF08F04B
:101050002CEF08F035EF08F0F0A231EF08F033EF95
:1010600008F035EF08F0BEEC0CF0F2A63AEF08F00D
:101070003CEF08F057EF08F0F2A041EF08F043EF23
:1010800008F057EF08F081A848EF08F04AEF08F0A1
:1010900057EF08F06804D8A450EF08F052EF08F0BA
:1010A00057EF08F0000E686E000E51EC0CF0F2A63F
:1010B0005CEF08F05EEF08F079EF08F0F2A063EF64
:1010C00008F065EF08F079EF08F081B86AEF08F0F2
:1010D0006CEF08F079EF08F06850D8A472EF08F0D0
:1010E00074EF08F079EF08F0010E686E010E51EC14
:1010F0000CF0F2A67EEF08F080EF08F09BEF08F00E
:10110000F2A085EF08F087EF08F09BEF08F081AAC6
:101110008CEF08F08EEF08F09BEF08F06704D8A47E
:1011200094EF08F096EF08F09BEF08F0000E676E62
:10113000000E94EC0CF0F2A6A0EF08F0A2EF08F07D
:10114000BDEF08F0F2A0A7EF08F0A9EF08F0BDEF9F
:1011500008F081BAAEEF08F0B0EF08F0BDEF08F08C
:101160006750D8A4B6EF08F0B8EF08F0BDEF08F06C
:10117000010E676E010E94EC0CF0F2A6C2EF08F0BF
:10118000C4EF08F0DFEF08F0F2A0C9EF08F0CBEFF2
:1011900008F0DFEF08F081ACD0EF08F0D2EF08F0F4
:1011A000DFEF08F06604D8A4D8EF08F0DAEF08F013
:1011B000DFEF08F0000E666E000E87EC0CF0F2A672
:1011C000E4EF08F0E6EF08F001EF09F0F2A0EBEF32
:1011D00008F0EDEF08F001EF09F081BCF2EF08F044
:1011E000F4EF08F001EF09F06650D8A4FAEF08F028
:1011F000FCEF08F001EF09F0010E666E010E51ECF4
:101200000CF0F2A606EF09F008EF09F023EF09F061
:10121000F2A00DEF09F00FEF09F023EF09F081AE16
:1012200014EF09F016EF09F023EF09F06504D8A4D4
:101230001CEF09F01EEF09F023EF09F0000E656EB8
:10124000000E7AEC0CF0F2A628EF09F02AEF09F074
:1012500045EF09F0F2A02FEF09F031EF09F045EF6B
:1012600009F081AE36EF09F038EF09F045EF09F0EB
:101270006550D8A43EEF09F040EF09F045EF09F0C2
:10128000000E656E010E7AEC0CF0F2AA4AEF09F03E
:101290004CEF09F055EF09F0F2A451EF09F053EFCC
:1012A00009F055EF09F0ADEC0CF09DA05AEF09F0F4
:1012B0005CEF09F065EF09F09EA061EF09F063EFC4
:1012C00009F065EF09F0A7EC0CF0CAA46AEF09F089
:1012D0006CEF09F075EF09F09EA271EF09F073EF62
:1012E00009F075EF09F0B8EC0CF0B1A07AEF09F055
:1012F0007CEF09F085EF09F0A1A281EF09F083EFFF
:1013000009F085EF09F0A1EC0CF09DA48AEF09F03B
:101310008CEF09F095EF09F09EA491EF09F093EF9F
:1013200009F095EF09F0C8EC0CF0A0A09AEF09F0D5
:101330009CEF09F0A5EF09F0A1A0A1EF09F0A3EF40
:1013400009F0A5EF09F0C6EC0CF09DA8AAEF09F092
:10135000ACEF09F0B5EF09F09EA8B1EF09F0B3EFDB
:1013600009F0B5EF09F0C4EC0CF09DAABAEF09F052
:10137000BCEF09F0C5EF09F09EAAC1EF09F0C3EF79
:1013800009F0C5EF09F0CBEC0CF09DA6CAEF09F00F
:10139000CCEF09F0D5EF09F09EA6D1EF09F0D3EF1D
:1013A00009F0D5EF09F0BCEC0CF07D9211007A50F9
:1013B000D8A4DDEF09F0DFEF09F0E1EF09F09DEFD0
:1013C0000AF0C69A7A50D96EDA6A020ED926DFB0D0
:1013D000ECEF09F0EEEF09F024EF0AF0C650F00B45
:1013E0000809C66E7A50D96EDA6A020ED926DFA8CD
:1013F000FCEF09F0FEEF09F000EF0AF001EF0AF050
:10140000C5967A50D96EDA6A090ED926DECF7BF0FE
:10141000DDCF7CF0D8907B367C36D8907B367C361E
:101420007BC06CF07CC06DF06E6A6F6A000E706EEF
:10143000090E716E3D0E726E000E736E9EEC0AF018
:101440006C04C86E60EF0AF07A50D96EDA6A020E48
:10145000D926DFA02EEF0AF030EF0AF060EF0AF095
:101460007A50D96EDA6A020ED926DFA63AEF0AF070
:101470003CEF0AF03FEF0AF0C58E4CEF0AF07A50CD
:10148000D96EDA6A020ED926DFB649EF0AF04BEFC1
:101490000AF04CEF0AF0C59EC69EC69C7A50D96EE3
:1014A000DA6A010ED926DF50C86EC6887A50D96E26
:1014B000DA6ADF507B6EC6507B18F00B7B18C66E65
:1014C0007A50D96EDA6A020ED926DFA26AEF0AF0E4
:1014D0006CEF0AF06FEF0AF0C78E7CEF0AF07A50DB
:1014E000D96EDA6A020ED926DFB279EF0AF07BEF05
:1014F0000AF07CEF0AF0C78E7A50D96EDA6A020ED3
:10150000D926DFA486EF0AF088EF0AF089EF0AF007
:10151000C78C7A50D96EDA6A020ED926DFB493EFFF
:101520000AF095EF0AF096EF0AF0C78C7AC06CF0DB
:10153000FAEC0BF094869488C68A1200000E756E41
:1015400073BEA7EF0AF0A5EF0AF0B1EF0AF0731E21
:10155000721E711E706C000E712272227322010EB7
:10156000756E6FBEB8EF0AF0B6EF0AF0C2EF0AF080
:101570006F1E6E1E6D1E6C6C000E6D226E226F2231
:10158000010E751A000E766E000E776E000E786EE4
:10159000000E796E7050711072107310D8B4D3EFC2
:1015A0000AF0D5EF0AF00BEF0BF0010E746EDFEFCF
:1015B0000AF0D8907036713672367336742A73AE6C
:1015C000E4EF0AF0E6EF0AF0D9EF0AF0D8907636A9
:1015D00077367836793670506C5C71506D58725031
:1015E0006E5873506F58D8A0F8EF0AF0FAEF0AF06F
:1015F00003EF0BF070506C5E71506D5A72506E5A62
:1016000073506F5A7680D890733272327132703262
:10161000742EE6EF0AF07550D8B411EF0BF013EF0B
:101620000BF01BEF0BF0791E781E771E766C000E08
:1016300077227822792276C06CF077C06DF078C07E
:101640006EF079C06FF01200860E4E6EA00E4D6ED9
:101650004690080E446E46924694B3EC0CF0440E4D
:101660007A6ED7EC09F0440E6F6E600E706E410E0C
:10167000716ED9EC0BF0030E00019B6F080E9A6F90
:10168000770EE82EFED79A2FFCD79B2FFAD7440E61
:101690006F6E620E706E420E716ED9EC0BF0030E1F
:1016A00000019B6F080E9A6F770EE82EFED79A2FD7
:1016B000FCD79B2FFAD7440E6F6E600E706E430EF0
:1016C000716ED9EC0BF0030E00019B6F080E9A6F40
:1016D000770EE82EFED79A2FFCD79B2FFAD7440E11
:1016E0006F6E620E706E440E716ED9EC0BF0030ECD
:1016F00000019B6F080E9A6F770EE82EFED79A2F87
:10170000FCD79B2FFAD733EF0BF007EF00F0D90E81
:10171000F66E180EF76E000EF86E00EE80F010EE0A
:101720001AF00900F5CFEEFFE550E150FAE1BE0EE8
:10173000F66E180EF76E000EF86E00EE50F010EE1A
:101740001BF00900F5CFEEFFE550E150FAE100EEA5
:1017500001F04F0EEE6AE806FDE17D907D920001FA
:1017600024EF0BF06C50D8A4B8EF0BF0BAEF0BF0ED
:10177000BCEF0BF0D8EF0BF06DC0C9FFC7B0C3EFE3
:101780000BF0C5EF0BF0BEEF0BF09E96C5BCCBEF98
:101790000BF0CDEF0BF0D3EF0BF06E50D96EDA6A91
:1017A000DF6AD8EF0BF06E50D96EDA6A010EDF6E89
:1017B00012006FC06CF036EC0CF06FC06CF071C0B2
:1017C0006DF04F0E6E6EB2EC0BF06FC06CF071C02E
:1017D0006DF04F0E6E6EB2EC0BF0410E726EEE0EAF
:1017E000E82EFED7722EFCD700D06FC06CF01BEC39
:1017F0000CF012006C50D96EDA6A030ED926DECFD7
:101800002DF0DDCF2EF06C50D96EDA6A050ED92698
:10181000DECF2BF0DDCF2CF06C50D96EDA6A070EDC
:10182000D926DECF29F0DDCF2AF0F28EF28C9D860C
:101830009E96A19612006C50D8A421EF0CF023EFD5
:101840000CF025EF0CF035EF0CF0C584C5B42BEF90
:101850000CF02DEF0CF026EF0CF09E96C7A833EF9E
:101860000CF035EF0CF023EF0CF012006C50D8A404
:101870003CEF0CF03EEF0CF040EF0CF050EF0CF0B2
:10188000C580C5B046EF0CF048EF0CF041EF0CF00E
:101890009E96C7A64EEF0CF050EF0CF03EEF0CF00A
:1018A00012006B6EF2906B50D8A459EF0CF05BEF06
:1018B0000CF05DEF0CF05DEF0CF0F2901200890F70
:1018C0008A0F8B0F8C0F8D0F920F930F940F950F24
:1018D000960F41010101010A123738392F3435368C
:1018E0002A3132332D23303D2B800F810F820F831D
:0318F0000F840F53
:1018F4006B6EF2906B50D8A482EF0CF084EF0CF076
:1019040086EF0CF086EF0CF012006B6EF2906B50C9
:10191400D8A48FEF0CF091EF0CF093EF0CF093EF51
:101924000CF012006B6EF2906B50D8A49CEF0CF08C
:101934009EEF0CF0A0EF0CF0A0EF0CF01200A192BF
:101944000850B36E07C0B2FF12009E900E50CF6EC7
:101954000DC0CEFF1200F2941050D76E0FC0D6FF08
:101964001200CAEC0CF000019C6F12009E923CC065
:10197400CCFF12009E961200F0921200F09012001A
:10198400F29212009D981200A19012009E941200EF
:04199400120012002B
:020000040030CA
:0E000000FF02091EFF8181FF0FC00FE00F40BD
:00000001FF
