:0400000007EF00F016
:0A000800788204ED08F02CEF0BF0F5
:1010000000256900257500000600FACF51F0FBCFDE
:1010100052F0F2A80EEF08F010EF08F019EF08F008
:10102000F2A215EF08F017EF08F019EF08F024EC22
:101030000CF0F0A61EEF08F020EF08F029EF08F002
:10104000F0A025EF08F027EF08F029EF08F022ECD8
:101050000CF0F0A82EEF08F030EF08F039EF08F0B0
:10106000F0A235EF08F037EF08F039EF08F020EC88
:101070000CF0F2A63EEF08F040EF08F05BEF08F04E
:10108000F2A045EF08F047EF08F05BEF08F081A809
:101090004CEF08F04EEF08F05BEF08F07404D8A4B2
:1010A00054EF08F056EF08F05BEF08F0000E746E96
:1010B000000EC5EC0BF0F2A660EF08F062EF08F04E
:1010C0007DEF08F0F2A067EF08F069EF08F07DEF20
:1010D00008F081B86EEF08F070EF08F07DEF08F0CF
:1010E0007450D8A476EF08F078EF08F07DEF08F0A0
:1010F000010E746E010EC5EC0BF0F2A682EF08F043
:1011000084EF08F09FEF08F0F2A089EF08F08BEF72
:1011100008F09FEF08F081AA90EF08F092EF08F036
:101120009FEF08F07304D8A498EF08F09AEF08F046
:101130009FEF08F0000E736E000EEDEC0BF0F2A6C0
:10114000A4EF08F0A6EF08F0C1EF08F0F2A0ABEFB3
:1011500008F0ADEF08F0C1EF08F081BAB2EF08F087
:10116000B4EF08F0C1EF08F07350D8A4BAEF08F05C
:10117000BCEF08F0C1EF08F0010E736E010EEDEC4C
:101180000BF0F2A6C6EF08F0C8EF08F0E3EF08F0A6
:10119000F2A0CDEF08F0CFEF08F0E3EF08F081AC5C
:1011A000D4EF08F0D6EF08F0E3EF08F07204D8A40B
:1011B000DCEF08F0DEEF08F0E3EF08F0000E726EEF
:1011C000000EE0EC0BF0F2A6E8EF08F0EAEF08F012
:1011D00005EF09F0F2A0EFEF08F0F1EF08F005EFEE
:1011E00009F081BCF6EF08F0F8EF08F005EF09F020
:1011F0007250D8A4FEEF08F000EF09F005EF09F0F7
:10120000010E726E010EC5EC0BF0F2A60AEF09F0AA
:101210000CEF09F027EF09F0F2A011EF09F013EF3E
:1012200009F027EF09F081AE18EF09F01AEF09F085
:1012300027EF09F07104D8A420EF09F022EF09F09C
:1012400027EF09F0000E716E000ED3EC0BF0F2A642
:101250002CEF09F02EEF09F049EF09F0F2A033EF7F
:1012600009F035EF09F049EF09F081AE3AEF09F0E6
:101270003CEF09F049EF09F07150D8A442EF09F0B2
:1012800044EF09F049EF09F0000E716E010ED3EC46
:101290000BF0F2AA4EEF09F050EF09F059EF09F008
:1012A000F2A455EF09F057EF09F059EF09F00FECF0
:1012B0000CF09DA05EEF09F060EF09F069EF09F016
:1012C0009EA065EF09F067EF09F069EF09F009ECFE
:1012D0000CF0CAA46EEF09F070EF09F079EF09F095
:1012E0009EA275EF09F077EF09F079EF09F019EC9C
:1012F0000CF0B1A07EEF09F080EF09F089EF09F062
:10130000A1A285EF09F087EF09F089EF09F003EC5E
:101310000CF09DA48EEF09F090EF09F099EF09F021
:101320009EA495EF09F097EF09F099EF09F02AECE8
:101330000CF0A0A09EEF09F0A0EF09F0A9EF09F0D2
:10134000A1A0A5EF09F0A7EF09F0A9EF09F028EC9B
:101350000CF09DA8AEEF09F0B0EF09F0B9EF09F07D
:101360009EA8B5EF09F0B7EF09F0B9EF09F026EC48
:101370000CF09DAABEEF09F0C0EF09F0C9EF09F02B
:101380009EAAC5EF09F0C7EF09F0C9EF09F02DECEF
:101390000CF09DA6CEEF09F0D0EF09F0D9EF09F0DF
:1013A0009EA6D5EF09F0D7EF09F0D9EF09F09CEC34
:1013B0000BF052C0FBFF51C0FAFF78921100615050
:1013C000D8A4E5EF09F0E7EF09F0E9EF09F0A5EFA0
:1013D0000AF0C69A6150D96EDA6A020ED926DFB0D9
:1013E000F4EF09F0F6EF09F02CEF0AF0C650F00B1D
:1013F0000809C66E6150D96EDA6A020ED926DFA8D6
:1014000004EF0AF006EF0AF008EF0AF009EF0AF01D
:10141000C5966150D96EDA6A090ED926DECF62F020
:10142000DDCF63F0D89062366336D890623663368B
:1014300062C053F063C054F0556A566A000E576E8E
:10144000090E586E3D0E596E000E5A6EA6EC0AF04B
:101450005304C86E68EF0AF06150D96EDA6A020E62
:10146000D926DFA036EF0AF038EF0AF068EF0AF06D
:101470006150D96EDA6A020ED926DFA642EF0AF071
:1014800044EF0AF047EF0AF0C58E54EF0AF06150BE
:10149000D96EDA6A020ED926DFB651EF0AF053EFA1
:1014A0000AF054EF0AF0C59EC69EC69C6150D96EE4
:1014B000DA6A010ED926DF50C86EC6886150D96E2F
:1014C000DA6ADF50626EC6506218F00B6218C66EA0
:1014D0006150D96EDA6A020ED926DFA272EF0AF0E5
:1014E00074EF0AF077EF0AF0C78E84EF0AF06150CC
:1014F000D96EDA6A020ED926DFB281EF0AF083EFE5
:101500000AF084EF0AF0C78E6150D96EDA6A020ED3
:10151000D926DFA48EEF0AF090EF0AF091EF0AF0DF
:10152000C78C6150D96EDA6A020ED926DFB49BEF00
:101530000AF09DEF0AF09EEF0AF0C78C61C053F0ED
:101540007BEC0BF094869488C68A1200000E5C6EC9
:101550005ABEAFEF0AF0ADEF0AF0B9EF0AF05A1E2B
:10156000591E581E576C000E582259225A22010E3D
:101570005C6E56BEC0EF0AF0BEEF0AF0CAEF0AF08A
:10158000561E551E541E536C000E542255225622D0
:10159000010E5C1A000E5D6E000E5E6E000E5F6E38
:1015A000000E606E5750581059105A10D8B4DBEF27
:1015B0000AF0DDEF0AF013EF0BF0010E5B6EE7EFC0
:1015C0000AF0D8905736583659365A365B2A5AAEF2
:1015D000ECEF0AF0EEEF0AF0E1EF0AF0D8905D369A
:1015E0005E365F3660365750535C585054585950E9
:1015F00055585A505658D8A000EF0BF002EF0BF098
:101600000BEF0BF05750535E5850545A5950555ADF
:101610005A50565A5D80D8905A3259325832573201
:101620005B2EEEEF0AF05C50D8B419EF0BF01BEF15
:101630000BF023EF0BF0601E5F1E5E1E5D6C000E54
:101640005E225F2260225DC053F05EC054F05FC036
:1016500055F060C056F01200660EF66E170EF76E6B
:10166000000EF86E00EE80F010EE24F00900F5CFC9
:10167000EEFFE550E150FAE1F40EF66E170EF76E4C
:10168000000EF86E00EE66F010EE11F00900F5CFD6
:10169000EEFFE550E150FAE100EE01F04F0EEE6A88
:1016A000E806FDE178907892000157EF0BF0860E86
:1016B0004E6EA00E4D6E4680060E446E600E456E58
:1016C000469246943A0E496E180E4A6E15EC0CF08E
:1016D000440E616EDFEC09F0060E656E130E646E4B
:1016E000AE0EE82EFED7642EFCD7652EFAD76CEF2F
:1016F0000BF007EF00F05350D96EDA6A030ED926CB
:10170000DECF2DF0DDCF2EF05350D96EDA6A050E04
:10171000D926DECF2BF0DDCF2CF05350D96EDA6A0C
:10172000070ED926DECF29F0DDCF2AF0F28EF28C1B
:101730009D869E96A19612009E962B502C10D8B492
:10174000A4EF0BF0A6EF0BF0B2EF0BF002D8B2EF64
:101750000BF00500FA6E2B50FD6E2C50FE6EFF6AEA
:10176000FA50120012003738392F3435362A313208
:10177000332D23303D2B800F810F820F830F840F79
:10178000890F8A0F8B0F8C0F8D0F506EF290505077
:10179000D8A4CDEF0BF0CFEF0BF0D1EF0BF0D1EFE2
:1017A0000BF0F2901200506EF2905050D8A4DBEF84
:1017B0000BF0DDEF0BF0DFEF0BF0DFEF0BF01200C3
:1017C000506EF2905050D8A4E8EF0BF0EAEF0BF017
:1017D000ECEF0BF0ECEF0BF01200506EF29050506B
:1017E000D8A4F5EF0BF0F7EF0BF0F9EF0BF0F9EFF2
:1017F0000BF01200920F930F940F950F960F41016B
:051800000101010A12C4
:10180600A1920850B36E07C0B2FF12009E900E5010
:10181600CF6E0DC0CEFF1200F2941050D76E0FC0DF
:10182600D6FF12002CEC0CF0776E12009E923CC094
:10183600CCFF1200014A022A1200F0921200F09028
:101846001200F29212009D981200A19012009E942E
:0618560012001200120056
:020000040030CA
:0E000000FF02091EFF8181FF0FC00FE00F40BD
:00000001FF
