:040000001AEF0BF0F8
:10100000000E0E1F1F1F1F1F000E0A1F1F1F1F1F76
:10101000000E0A111F1F1F1F000E0A11111F1F1F94
:10102000000E0A1111111F1F000E0A111111111FBC
:1010300000040A0404040E150E334F4B53484100BC
:071040002569002575000081
:10104800010E406E3A50D8B42CEF08F02EEF08F09D
:101058003EEF08F03A50D96EDA6ADF30E832E8320B
:10106800070B3B6E070E3B643CEF08F03EEF08F0C1
:1010780095EF08F0000E406EABEF08F03A50D96ECD
:10108800DA6ADF30E832E832070B3B6E010E3C6E5D
:101098003B2A51EF08F0D8903C363B2E4FEF08F032
:1010A8003C50FF0A3D6E3A50D96EDA6ADF50070BA2
:1010B800020DF350250FD96EDA6ADECF3EF0DDCF90
:1010C8003FF03EC0D9FF3FC0DAFF3D50DF16ABEF1F
:1010D80008F03A50D96EDA6ADF30E832E832070BA6
:1010E8003B6E010E3C6E3B2A7CEF08F0D8903C36F4
:1010F8003B2E7AEF08F03A50D96EDA6ADF50070BC8
:10110800020DF350250FD96EDA6ADECF3DF0DDCF40
:101118003EF03DC0D9FF3EC0DAFF3C50DF12ABEFD6
:1011280008F03A50D96EDA6ADFBC9DEF08F0A0EFFC
:1011380008F0010EA1EF08F0000E000AD8B442EF43
:1011480008F0010AD8B46DEF08F03EEF08F04050FF
:101158001200010E416E3A50D8A4B5EF08F0B7EF6F
:1011680008F00EEF09F0000E416E23EF09F03A5037
:10117800D96EDA6ADF30E832E832070B3C6E010ECE
:101188003D6E3C2ACAEF08F0D8903D363C2EC8EF99
:1011980008F03D50FF0A3E6E3A50D96EDA6ADF50C9
:1011A800070B020DF3501B0FD96EDA6ADECF3FF042
:1011B800DDCF40F03FC0D9FF40C0DAFF3E50DF1618
:1011C80023EF09F03A50D96EDA6ADF30E832E832B4
:1011D800070B3C6E010E3D6E3C2AF5EF08F0D890E7
:1011E8003D363C2EF3EF08F03A50D96EDA6ADF50FC
:1011F800070B020DF3501B0FD96EDA6ADECF3EF0F3
:10120800DDCF3FF03EC0D9FF3FC0DAFF3D50DF12CF
:1012180023EF09F03B503C6E3D6A3D50000AD8B4BC
:1012280018EF09F023EF09F03C50000AD8B4BBEFDF
:1012380008F0010AD8B4E6EF08F023EF09F04150AE
:101248001200000E4C6E4950D8A42DEF09F02FEF74
:1012580009F031EF09F08DEF09F049C042F0A4EC34
:101268000AF04B6E4928426EA4EC0AF04B6E000E51
:101278004C6E49504C24020F426EA4EC0AF04C2AE2
:10128800070E4C644AEF09F04CEF09F03DEF09F006
:10129800340E4A6EF20EE82EFED74A2EFCD749C00D
:1012A80043F0380E446E05EC0AF00D0E4A6EFC0E43
:1012B800E82EFED74A2EFCD749C043F0380E446EBC
:1012C80005EC0AF0640EE82EFED749C043F0380E4C
:1012D800446E05EC0AF049C043F0010E446E05EC7B
:1012E8000AF049C043F0020E446E05EC0AF049C00A
:1012F80043F0060E446E05EC0AF049C043F00C0EAC
:10130800446E05EC0AF049C043F0380E446E05EC13
:101318000AF012004B06B5EF09F049C043F04B50F4
:10132800800F446E05EC0AF0C8EF09F049C043F09D
:101338004B50C00F446E05EC0AF0C8EF09F049C0E5
:1013480043F04B50940F446E05EC0AF0C8EF09F0D7
:1013580049C043F04B50D40F446E05EC0AF0C8EF77
:1013680009F04A50010AD8B491EF09F0030AD8B439
:101378009AEF09F0010AD8B4A3EF09F0070AD8B424
:10138800ACEF09F0C8EF09F0010E1200000E486E2C
:101398004350D8A4D2EF09F0D4EF09F0D8EF09F000
:1013A800000E476E03EF0AF043C03AF0010E3B6EA1
:1013B800ADEC08F0000E486E43504824020F3A6E18
:1013C80048C045F044C046F0452AEDEF09F0D890F2
:1013D8004632452EEBEF09F04650010B3B6EADEC63
:1013E80008F0476E482A070E4864FDEF09F0FFEF42
:1013F80009F0E0EF09F043C042F035EC0BF047503C
:101408001200000E486E4350D8A40DEF0AF00FEFFB
:101418000AF013EF0AF0000E476E3EEF0AF043C0E1
:101428003AF0000E3B6EADEC08F0000E486E4350EB
:101438004824020F3A6E48C045F044C046F0452A99
:1014480028EF0AF0D8904632452E26EF0AF046508B
:10145800010B3B6EADEC08F0476E482A070E486456
:1014680038EF0AF03AEF0AF01BEF0AF043C042F0F7
:1014780035EC0BF047501200000E576E5150D8A4AF
:1014880048EF0AF04AEF0AF04CEF0AF078EF0AF05A
:1014980051C043F05550080DF350400F446E05EC11
:1014A8000AF0000E576E51C043F054505724566E40
:1014B80056C0F6FF100EF76E0800F5CF44F0CAECE0
:1014C80009F0572A070E57646CEF0AF06EEF0AF01E
:1014D80057EF0AF051C04CF052C04DF053C04EF0D7
:1014E80055C04FF0C3EC0AF01200010E4B6E495084
:1014F800D8A481EF0AF083EF0AF094EF0AF0000E07
:101508004B6EA2EF0AF049C043F04AC0F6FF100E36
:10151800F76E0800F5CF44F0CAEC09F04B6E4A2A82
:101528004AC0F6FF100EF76E0800F5500009D8A45F
:10153800A0EF0AF0A2EF0AF087EF0AF04B50120072
:10154800010E436E4250D8A4ACEF0AF0AEEF0AF099
:10155800B2EF0AF0000E436EC1EF0AF042C03AF053
:1015680024EC08F042C03AF04250D96EDA6A000E14
:10157800DFBE010E3B6EADEC08F043501200010EC9
:10158800506E4C50D8A4CBEF0AF0CDEF0AF0D1EF53
:101598000AF0000E506EDFEF0AF04CC049F04DC063
:1015A8004AF04EC04BF08EEC09F04CC043F04FC0EF
:1015B80044F0CAEC09F0505012003738392F34354E
:1015C800362A3132332D23303D2B800F810F820F85
:1015D800830F840F890F8A0F8B0F8C0F8D0F920F3B
:1015E800930F940F950F960F032A3A030B131B239F
:0315F8002B333B57
:1015FC006EEC0BF0300E4C6E010E4D6E0F0E4E6EEF
:10160C00390E4F6E50EC0BF0300E516E020E526EC6
:10161C000F0E536E310E546E010E556E40EC0AF0E7
:10162C0000EF0BF000EF00F0C20EF66E150EF76E29
:10163C00000EF86E00EE01F010EE39F00900F5CF57
:10164C00EEFFE550E150FAE100EE58F0070EEE6ABD
:10165C00E806FDE1000EF86E0001FEEF0AF04250C4
:10166C00D8A43BEF0BF03DEF0BF03FEF0BF04FEF3F
:10167C000BF042283A6E010E3B6EADEC08F0030EF7
:10168C00E82EFED7000042283A6E000E3B6EADEC01
:10169C0008F012004C50D8A456EF0BF058EF0BF09A
:1016AC005AEF0BF068EF0BF04CC049F04DC04AF00C
:1016BC004EC04BF08EEC09F04CC049F04FC04AF0D4
:1016CC0079EC0AF01200300E496E25EC09F012008C
:0816DC0069EC0BF05F6E1200D7
:020000040030CA
:0E000000FF02091EFF8181FF0FC00FE00F40BD
:00000001FF
